:020000040000FA
:10000000800200106901000071010000730100000E
:100010007501000077010000790100000000000078
:100020000000000000000000000000007B01000054
:100030007D010000000000007F0100008101000040
:1000400083010000830100008301000083010000A0
:100050008301000083010000830100008301000090
:10006000830100008B060000830100008301000073
:100070008301000083010000830100008301000070
:100080008301000083010000830100008301000060
:1000900083010000EB0500008301000083010000E4
:1000A0008301000083010000830100008301000040
:1000B0008301000083010000830100008301000030
:1000C00083010000830100008301000000F002F8BA
:1000D00000F03AF80AA090E8000C82448344AAF1A8
:1000E0000107DA4501D100F02FF8AFF2090EBAE8A6
:1000F0000F0013F0010F18BFFB1A43F0010318475C
:10010000F005000010060000103A24BF78C878C13E
:10011000FAD8520724BF30C830C144BF04680C600D
:10012000704700000023002400250026103A28BF55
:1001300078C1FBD8520728BF30C148BF0B60704759
:100140001FB51FBD10B510BD00F0A6F81146FFF792
:10015000F7FF00F032FA00F0C4F803B4FFF7F2FF43
:1001600003BC00F0BFFA0000094880470948004777
:10017000FEE7FEE7FEE7FEE7FEE7FEE7FEE7FEE757
:10018000FEE7FEE704480549034A054B70470000B7
:10019000A9040000CD0000008000001080020010C3
:1001A0008000001053EA020C00F069802DE9F04B4A
:1001B0004FF00006002B1FBFB3FA83F503FA05F4D6
:1001C00024FA05F65E4012BF1643B2FA82F502FA2F
:1001D00005F4C5F120051EBF22FA05FC44EA0C0413
:1001E000203556EA044C4FEA144418BF641C4FF003
:1001F00000084FF00009904271EB030C39D300293D
:1002000019BFB1FA81F701FA07F6B0FA80F700FAE0
:1002100007F6C7F120071EBF20FA07FC46EA0C06C6
:100220002037B6FBF4FCA7EB0507103F07F01F0BC8
:10023000CBF120060CFA0BFB2CFA06F644BFB346B2
:100240000026202FA4BF5E464FF0000B5BEA060C91
:1002500008BF4FF0010B19EB0B09ABFB027C48EB1D
:100260000608C01B06FB02CC0BFB03CC71EB0C0198
:10027000C1E70B46024641464846BDE8F08B13B540
:100280004FF000004FF00001AFF30080BDE81C40CC
:100290007047704770477047754600F029F8AE46C2
:1002A00005006946534620F00700854618B020B582
:1002B000FFF768FFBDE820404FF000064FF0000751
:1002C0004FF000084FF0000B21F00701AC46ACE8FE
:1002D000C009ACE8C009ACE8C009ACE8C0098D466B
:1002E00070470446AFF300802046FFF736FF00005A
:1002F000004870471C00001070470000FFFFFFFF20
:100300002DE9F04782480068C0F3016003287CD1E2
:100310008048006810F0030006D0012833D002287E
:100320005FD003282ED100E000BF79480068C0F3F9
:10033000074000F101044FF002017748D0F888002F
:10034000C0F30E0000F10100A1FB0001734B4FF060
:10035000000CA0FB037901FB039100FB0C1122466A
:1003600063463846FFF71EFF05466D480068C0B279
:1003700000F1010422464FF000032846FFF712FF68
:10038000684908605DE062480068C0F3074000F11A
:1003900001044FF002016048D0F88800C0F30E005D
:1003A00000F10100A1FB00105F4A4FF0000CA1FB1F
:1003B000027900FB029001FB0C012246634638469D
:1003C000FFF7F0FE054656480068C0B200F1010490
:1003D00022464FF000032846FFF7E4FE514908602B
:1003E0002FE04B480068C0F3074000F101044FF0D4
:1003F00002014948D0F88800C0F30E0000F1010066
:10040000A1FB00124FF4004000E01BE04FF000039E
:10041000A1FB007902FB009001FB03012246384654
:10042000FFF7C0FE05463E480068C0B200F1010477
:1004300022464FF000032846FFF7B4FE3949086012
:1004400000BF2FE03348006810F0030006D00128F9
:1004500010D0022819D0032823D100E000BF304873
:100460000068C0B200F101002C49B1FBF0F02D4949
:10047000086016E02A480068C0B200F101002A496D
:10048000B1FBF0F0274908600BE025480068C0B2D6
:1004900000F101004FF40041B1FBF0F02149086088
:1004A00000BF00BFBDE8F0872020204908601A483F
:1004B000D0F8A00110F0200F05D000BF1B48006845
:1004C00010F0400FFAD003201549086044F255108F
:1004D0001149C1F8A8014FF00000154908604FF01C
:1004E00001000C4908604FF00400A1F1040108600C
:1004F0001048114908604FF480700749C1F8C801DD
:100500000846006820F4704040F48040086070475E
:1005100088C00F400CC10F4000C00F4000093D00D3
:1005200004C10F4000000010001BB700A0C10F4025
:10053000ACC10F40DEF7EFEFC4C00F4010B55D480F
:10054000006840F480305C49C1F8C4005B48C06872
:1005500020F440405949C8600846C06840F4004053
:10056000C8604FF000005649C8604FF48050C8641E
:100570004FF00300486147F2305088614FF48070BB
:1005800008644FF0FF0008654FF0020048604FF02C
:100590000900486000F082F810BD10B500204749FE
:1005A00008608815474908608861F020464908605E
:1005B0004FF0150000F072F810BDFFF775FFFFF760
:1005C0009FFEFFF7EAFFFFF7B9FF0DE000203F496C
:1005D000086004E03D480068401C3C4908603B4816
:1005E0000068B0F5FA7FF5D3F0E73948006839497B
:1005F00008600846007800F0F000086008460068CF
:100600004FEA1010086008460068012801D13249FD
:10061000086030480068022801D12F4908602D4841
:100620000068042802D103202B490860294800688B
:10063000082802D1042028490860274800680128BA
:1006400004D141F64C502549086019E02248006861
:10065000022804D143F698202049086010E01E4883
:100660000068032804D145F2E4701C49086007E0E3
:1006700019480068042803D147F230501749086030
:100680004FF0FF30164908607047FF200C4908659D
:10069000124800680864FF200860704700F01F02DD
:1006A0000121914042094FF0E02303EB8202C2F89E
:1006B00000117047C4C00F4000C00F4000C002408E
:1006C0000080014000C00920908002400800001016
:1006D000848002400C000010100000101400001074
:1006E0008C80024001491820ABBEFEE726000200C4
:1006F00010070000000000101C00000008010000AE
:100700002C0700001C0000106402000024010000FF
:10071000C0C62D0000000000000000000000000026
:0C072000000000000000000000000000CD
:04000005000001698D
:00000001FF
