:020000040000FA
:1000000088030010A1010000A9010000AB0100005D
:10001000AD010000AF010000B101000000000000D0
:10002000000000000000000000000000B30100001C
:10003000B501000000000000B7010000B901000098
:10004000BB010000BB010000BB010000BB010000C0
:10005000BB010000BB010000BB010000BB010000B0
:10006000BB010000BB010000BB010000BB010000A0
:10007000BB010000BB010000BB010000BB01000090
:10008000BB010000BB010000BB010000BB01000080
:10009000BB010000BB010000BB010000BB01000070
:1000A000BB010000BB010000BB010000BB01000060
:1000B000BB010000BB010000BB010000BB01000050
:1000C000BB010000BB010000BB01000000F002F812
:1000D00000F03CF80AA090E8000C82448344AAF1A6
:1000E0000107DA4501D100F031F8AFF2090EBAE8A4
:1000F0000F0013F0010F18BFFB1A43F0010318475C
:10010000FC0500001C060000103A24BF78C878C126
:10011000FAD8520724BF30C830C144BF04680C600D
:10012000704700000023002400250026103A28BF55
:1001300078C1FBD8520728BF30C148BF0B60704759
:100140001FB500F0CCF81FBD10B510BD00F0A1FA2E
:100150001146FFF7F5FF00F061F800F0BFFA03B4B5
:10016000FFF7F2FF03BC00F0C3FA00000B49D1F81F
:1001700000C04A685CF8043B1068184442F8040B5D
:100180008C4528BFA1F1DC0C8A4228BFA1F1DC021A
:10019000C1F800C04A6020F0004070472001001004
:1001A0000948804709480047FEE7FEE7FEE7FEE70B
:1001B000FEE7FEE7FEE7FEE7FEE7FEE70448054947
:1001C000034A054B70470000A9040000CD00000061
:1001D0008801001088030010880100102B4909686D
:1001E000012905D12A4908606FF0F061294A51635D
:1001F0000101284A51610021274A116004E0264983
:100200000968491C244A116023490968234A91421C
:10021000F5D34FF47F611F4AD161704700F044F974
:1002200000F06EF800201E490860C86008614FF4B5
:100230007F60184908604FF0F06008620020086491
:1002400022E01448406D174908700846007800F015
:100250000100087008460078A0B9FFF787FF062163
:1002600090FBF1F201FB1200401C0F4908600F489F
:10027000096850F821000E49086008460068FFF739
:10028000ADFF00E000E000BFDBE700002C00001045
:100290003000001000C009203C00001020A1070021
:1002A00000C00240380000103400001004000010AC
:1002B000400000100B4910B5A1F17C020A4CC2E9C4
:1002C0003712372106E000EB104342F82130074B8C
:1002D00000FB03400B1EA1F10101F4DC10BD012065
:1002E000E8E70000C0000010E119D666CD0D01005E
:1002F000704770477047704700000000FFFFFFFF26
:100300002DE9F04798480068C0F3016003287CD1CC
:100310009648006810F0030006D0012833D0022868
:100320005FD003282ED100E000BF8F480068C0F3E3
:10033000074000F101044FF002018D48D0F8880019
:10034000C0F30E0000F10100A1FB0001894B4FF04A
:10035000000CA0FB037901FB039100FB0C1122466A
:100360006346384600F01EF9054683480068C0B26F
:1003700000F1010422464FF00003284600F012F974
:100380007E4908605DE078480068C0F3074000F1EE
:1003900001044FF002017648D0F88800C0F30E0047
:1003A00000F10100A1FB0010754A4FF0000CA1FB09
:1003B000027900FB029001FB0C012246634638469D
:1003C00000F0F0F805466C480068C0B200F1010486
:1003D00022464FF00003284600F0E4F86749086021
:1003E0002FE061480068C0F3074000F101044FF0BE
:1003F00002015F48D0F88800C0F30E0000F1010050
:10040000A1FB00124FF4004000E01BE04FF000039E
:10041000A1FB007902FB009001FB03012246384654
:1004200000F0C0F8054654480068C0B200F101046D
:1004300022464FF00003284600F0B4F84F49086008
:1004400000BF2FE04948006810F0030006D00128E3
:1004500010D0022819D0032823D100E000BF46485D
:100460000068C0B200F101004249B1FBF0F043491D
:10047000086016E040480068C0B200F10100404941
:10048000B1FBF0F03D4908600BE03B480068C0B2AA
:1004900000F101004FF40041B1FBF0F03749086072
:1004A00000BF00BFBDE8F087202036490860304813
:1004B000D0F8A00110F0200F05D000BF314800682F
:1004C00010F0400FFAD003202B4908604FF00000D5
:1004D0002749C1F8A8012C4908604FF001002349C1
:1004E00008604FF02300294908604FF0AA0028490E
:1004F00008604FF0550008604FF001002549086082
:100500004FF0AA00224908604FF055001849C1F881
:10051000AC0000BF2048006810F4806FFAD00320C0
:100520001C4908604FF0AA001149C1F8AC004FF017
:1005300055001749086000BF1748006800F4407074
:10054000B0F5407FF8D11548154908604FF000001C
:100550000749C1F8C8010846006820F4704040F41B
:10056000804008607047000088C00F400CC10F40F9
:1005700000C00F4000093D0004C10F400000001002
:10058000001BB700A0C10F40ACC10F40A4C00F407A
:10059000ACC00F40A0C00F40A8C00F40DE872804A9
:1005A000C4C00F4053EA020C00F069802DE9F04B03
:1005B0004FF00006002B1FBFB3FA83F503FA05F4D2
:1005C00024FA05F65E4012BF1643B2FA82F502FA2B
:1005D00005F4C5F120051EBF22FA05FC44EA0C040F
:1005E000203556EA044C4FEA144418BF641C4FF0FF
:1005F00000084FF00009904271EB030C39D3002939
:1006000019BFB1FA81F701FA07F6B0FA80F700FADC
:1006100007F6C7F120071EBF20FA07FC46EA0C06C2
:100620002037B6FBF4FCA7EB0507103F07F01F0BC4
:10063000CBF120060CFA0BFB2CFA06F644BFB346AE
:100640000026202FA4BF5E464FF0000B5BEA060C8D
:1006500008BF4FF0010B19EB0B09ABFB027C48EB19
:100660000608C01B06FB02CC0BFB03CC71EB0C0194
:10067000C1E70B46024641464846BDE8F08B13B53C
:100680004FF000004FF00001AFF30080BDE81C40C8
:100690007047754600F028F8AE4605006946534697
:1006A00020F00700854618B020B5FFF787FDBDE8AC
:1006B00020404FF000064FF000074FF000084FF0C9
:1006C000000B21F00701AC46ACE8C009ACE8C0095A
:1006D000ACE8C009ACE8C0098D4670470446AFF3EA
:1006E00000802046FFF73BFD0048704728010010BE
:1006F00001491820ABBEFEE7260002001C070000DF
:100700000000001044000000080100006007000025
:10071000440000104403000024010000C0C62D0066
:100720003F000000060000005B0000004F000000DA
:10073000660000006D0000007D0000000700000062
:100740007F0000006F0000000100000000000000BA
:100750000000000000000000000000000000000099
:04000005000001A155
:00000001FF
