:020000040000FA
:100000000803001069010000710100007301000085
:100010007501000077010000790100000000000078
:100020000000000000000000000000007B01000054
:100030007D010000000000007F0100008101000040
:1000400083010000830100008301000083010000A0
:100050008301000083010000830100008301000090
:100060008301000083010000830100008301000080
:100070008301000083010000830100008301000070
:100080008301000083010000830100008301000060
:100090008301000083010000830100008301000050
:1000A0008301000083010000830100008301000040
:1000B0008301000083010000830100008301000030
:1000C00083010000830100008301000000F002F8BA
:1000D00000F03AF80AA090E8000C82448344AAF1A8
:1000E0000107DA4501D100F02FF8AFF2090EBAE8A6
:1000F0000F0013F0010F18BFFB1A43F0010318475C
:10010000C8090000E8090000103A24BF78C878C187
:10011000FAD8520724BF30C830C144BF04680C600D
:10012000704700000023002400250026103A28BF55
:1001300078C1FBD8520728BF30C148BF0B60704759
:100140001FB51FBD10B510BD00F0A6F81146FFF792
:10015000F7FF00F04CFC00F0C4F803B4FFF7F2FF27
:1001600003BC00F0ABFC0000094880470948004789
:10017000FEE7FEE7FEE7FEE7FEE7FEE7FEE7FEE757
:10018000FEE7FEE704480549034A054B70470000B7
:10019000A9040000CD0000000801001008030010B1
:1001A0000801001053EA020C00F069802DE9F04BC1
:1001B0004FF00006002B1FBFB3FA83F503FA05F4D6
:1001C00024FA05F65E4012BF1643B2FA82F502FA2F
:1001D00005F4C5F120051EBF22FA05FC44EA0C0413
:1001E000203556EA044C4FEA144418BF641C4FF003
:1001F00000084FF00009904271EB030C39D300293D
:1002000019BFB1FA81F701FA07F6B0FA80F700FAE0
:1002100007F6C7F120071EBF20FA07FC46EA0C06C6
:100220002037B6FBF4FCA7EB0507103F07F01F0BC8
:10023000CBF120060CFA0BFB2CFA06F644BFB346B2
:100240000026202FA4BF5E464FF0000B5BEA060C91
:1002500008BF4FF0010B19EB0B09ABFB027C48EB1D
:100260000608C01B06FB02CC0BFB03CC71EB0C0198
:10027000C1E70B46024641464846BDE8F08B13B540
:100280004FF000004FF00001AFF30080BDE81C40CC
:100290007047704770477047754600F029F8AE46C2
:1002A00005006946534620F00700854618B020B582
:1002B000FFF768FFBDE820404FF000064FF0000751
:1002C0004FF000084FF0000B21F00701AC46ACE8FE
:1002D000C009ACE8C009ACE8C009ACE8C0098D466B
:1002E00070470446AFF300802046FFF736FF00005A
:1002F00000487047A400001070470000FFFFFFFF98
:100300002DE9F04798480068C0F3016003287CD1CC
:100310009648006810F0030006D0012833D0022868
:100320005FD003282ED100E000BF8F480068C0F3E3
:10033000074000F101044FF002018D48D0F8880019
:10034000C0F30E0000F10100A1FB0001894B4FF04A
:10035000000CA0FB037901FB039100FB0C1122466A
:1003600063463846FFF71EFF054683480068C0B263
:1003700000F1010422464FF000032846FFF712FF68
:100380007E4908605DE078480068C0F3074000F1EE
:1003900001044FF002017648D0F88800C0F30E0047
:1003A00000F10100A1FB0010754A4FF0000CA1FB09
:1003B000027900FB029001FB0C012246634638469D
:1003C000FFF7F0FE05466C480068C0B200F101047A
:1003D00022464FF000032846FFF7E4FE6749086015
:1003E0002FE061480068C0F3074000F101044FF0BE
:1003F00002015F48D0F88800C0F30E0000F1010050
:10040000A1FB00124FF4004000E01BE04FF000039E
:10041000A1FB007902FB009001FB03012246384654
:10042000FFF7C0FE054654480068C0B200F1010461
:1004300022464FF000032846FFF7B4FE4F490860FC
:1004400000BF2FE04948006810F0030006D00128E3
:1004500010D0022819D0032823D100E000BF46485D
:100460000068C0B200F101004249B1FBF0F043491D
:10047000086016E040480068C0B200F10100404941
:10048000B1FBF0F03D4908600BE03B480068C0B2AA
:1004900000F101004FF40041B1FBF0F03749086072
:1004A00000BF00BFBDE8F087202036490860304813
:1004B000D0F8A00110F0200F05D000BF314800682F
:1004C00010F0400FFAD003202B4908604FF00000D5
:1004D0002749C1F8A8012C4908604FF001002349C1
:1004E00008604FF02300294908604FF0AA0028490E
:1004F00008604FF0550008604FF001002549086082
:100500004FF0AA00224908604FF055001849C1F881
:10051000AC0000BF2048006810F4806FFAD00320C0
:100520001C4908604FF0AA001149C1F8AC004FF017
:1005300055001749086000BF1748006800F4407074
:10054000B0F5407FF8D11548154908604FF000001C
:100550000749C1F8C8010846006820F4704040F41B
:10056000804008607047000088C00F400CC10F40F9
:1005700000C00F4000093D0004C10F400000001002
:10058000001BB700A0C10F40ACC10F40A4C00F407A
:10059000ACC00F40A0C00F40A8C00F40DE872804A9
:1005A000C4C00F40F948FA49096850F82100F949D8
:1005B0000860084600680001F7494861F44800688F
:1005C000022817D14FF0F060C8614FF40000886135
:1005D0000020F249086004E0F0480068401CEF4940
:1005E0000860EF48EA49096850F82100EB490968BA
:1005F0008842F1D8E6480068012818D14FF0F06031
:10060000E549C8614FF0807088610020E3490860C7
:1006100004E0E2480068401CE0490860E048DC492A
:10062000096850F82100DD4909688842F1D8D848A6
:100630000068C0B94FF0F060D749C8614FF0C07092
:1006400088610020D549086004E0D4480068401C57
:10065000D2490860D248CE49096850F82100CF49F4
:1006600009688842F1D80020CC49086004E0CB48F2
:100670000068401CC9490860C8480068C9498842E8
:10068000F5D34FF00070C44948610020C3490860A9
:1006900004E0C2480068401CC0490860BF480068C8
:1006A0004CF250318842F4D37047BF4800680001D3
:1006B000B94948614FF0F060C8614FF400008861AB
:1006C0000020B649086004E0B4480068401CB34903
:1006D0000860B2480068B3498842F5D34FF0007013
:1006E000AD4948610020AD49086004E0AB480068AE
:1006F000401CAA490860A94800684CF25031884261
:10070000F4D3AA4800680001A34948614FF0F060A3
:10071000C8610020A149086004E0A0480068401CAE
:100720009E4908609D4800689E498842F5D34FF075
:1007300000709949486100209849086004E0974892
:100740000068401C95490860944800684CF250319C
:100750008842F4D370479648006800018E4948618A
:100760004FF0F060C86100208C49086004E08B48BD
:100770000068401C89490860884800688D498842A3
:10078000F5D34FF000708449486100208349086028
:1007900004E082480068401C804908607F48006887
:1007A0004CF250318842F4D3704700B500207B49A9
:1007B000086011E0754800687F49784A126851F86E
:1007C0002210884203D1754800687C49086073484C
:1007D0000068401C71490860704800680A28E9D325
:1007E00000206E49086011E06848816872486B4AD1
:1007F000126850F82200814203D1684800686F49AE
:10080000486066480068401C6449086063480068A6
:100810000A28E9D35D484068732823D167480068F7
:1008200066494968084462490860084600680A2821
:1008300008D26148096850F821005D490860FFF757
:100840008AFF0FE0062058490860594800680A38B6
:10085000564908605848096850F821005349086013
:10086000FFF723FF49484068402823D153480068D8
:1008700052494968401A4E4908600846006840B12C
:100880004D48096850F8210049490860FFF763FFA7
:1008900010E040204449086045480068C0F1FF303E
:1008A000424908604448096850F821003F490860FF
:1008B000FFF7FBFE00BD17204149086000204149B9
:1008C000086020E03448406B3F4908603C480178AC
:1008D000012088403C49096808403B490860384885
:1008E0000068401C364908603748006830B1012074
:1008F0003649274A126841F8220008E0314800686A
:10090000401C304908602F4800680428DAD300BF33
:10091000704700B54FF470501F49886500BF1E48EE
:10092000406B10F0F06FFAD000202949086058E0C1
:100930002748006818B94FF48060264908602448A9
:100940000068012802D1C0022249086020480068DE
:10095000022802D1C0021F4908601D480068032810
:1009600003D14FF400501B4908604FF470500A49FE
:10097000C865184800688865FFF79DFF134804495B
:10098000096850F82100012826D12EE098000010B7
:10099000040000107000001000C00920600000106A
:1009A00008000010A0860100780000107C000010F4
:1009B0007400001020A1070018000010580000105B
:1009C0006400001084000010680000108C0000100B
:1009D000800000106C0000102E480068401C2D495B
:1009E00008602C4800680428A2D900BF00BDFFF7AA
:1009F0005BFDFFF785FC2848C06820F47F1026497E
:100A0000C8600846006920F07F6008612348006ADA
:100A100060F0F060214908620846006C40F47050B4
:100A200008641F481C4908606FF47F1048601B4829
:100A300000681C4908431949086029E027E01A4862
:100A40001A49096850F82100D0B9FFF762FF114830
:100A500000681749096801EB8000164951F8200029
:100A60001549124A126841F822000F48806801288F
:100A700006D1FFF797FD00200C490860FFF795FEAF
:100A8000FFF790FD09480068401C08490860D6E758
:100A9000D4E700008000001000C0024000C0092020
:100AA000FF0000FFF00F80078C0000100400001012
:100AB0008400001018000010980000100149182050
:100AC000ABBEFEE726000200E80A000000000010AE
:100AD0008C00000008010000740B00008C00001066
:100AE0007C02000024010000C0C62D0000000000B0
:100AF000E0930400400D0300A086010040000000C8
:100B00003F000000060000005B0000004F000000F6
:100B1000660000006D0000007D000000070000007E
:100B20007E0000006F000000730000004000000025
:100B300000000000000000000000000000000000B5
:100B400000000000000000000000000000000000A5
:100B50000000000000000000000000000000000095
:100B60000000000000000000000000000000000085
:040B70000000000081
:04000005000001698D
:00000001FF
