:020000040000FA
:10000000C8020010690100007101000073010000C6
:100010007501000077010000790100000000000078
:100020000000000000000000000000007B01000054
:100030007D010000000000007F0100008101000040
:1000400083010000830100008301000083010000A0
:100050008301000083010000830100008301000090
:100060008301000083010000830100008301000080
:100070008301000083010000830100008301000070
:100080008301000083010000830100008301000060
:100090008301000083010000830100008301000050
:1000A0008301000083010000830100008301000040
:1000B0008301000083010000830100008301000030
:1000C00083010000830100008301000000F002F8BA
:1000D00000F03AF80AA090E8000C82448344AAF1A8
:1000E0000107DA4501D100F02FF8AFF2090EBAE8A6
:1000F0000F0013F0010F18BFFB1A43F0010318475C
:100100004806000068060000103A24BF78C878C18D
:10011000FAD8520724BF30C830C144BF04680C600D
:10012000704700000023002400250026103A28BF55
:1001300078C1FBD8520728BF30C148BF0B60704759
:100140001FB51FBD10B510BD00F0A6F81146FFF792
:10015000F7FF00F069FA00F0C4F803B4FFF7F2FF0C
:1001600003BC00F0EBFA000009488047094800474B
:10017000FEE7FEE7FEE7FEE7FEE7FEE7FEE7FEE757
:10018000FEE7FEE704480549034A054B70470000B7
:10019000A9040000CD000000C8000010C802001033
:1001A000C800001053EA020C00F069802DE9F04B02
:1001B0004FF00006002B1FBFB3FA83F503FA05F4D6
:1001C00024FA05F65E4012BF1643B2FA82F502FA2F
:1001D00005F4C5F120051EBF22FA05FC44EA0C0413
:1001E000203556EA044C4FEA144418BF641C4FF003
:1001F00000084FF00009904271EB030C39D300293D
:1002000019BFB1FA81F701FA07F6B0FA80F700FAE0
:1002100007F6C7F120071EBF20FA07FC46EA0C06C6
:100220002037B6FBF4FCA7EB0507103F07F01F0BC8
:10023000CBF120060CFA0BFB2CFA06F644BFB346B2
:100240000026202FA4BF5E464FF0000B5BEA060C91
:1002500008BF4FF0010B19EB0B09ABFB027C48EB1D
:100260000608C01B06FB02CC0BFB03CC71EB0C0198
:10027000C1E70B46024641464846BDE8F08B13B540
:100280004FF000004FF00001AFF30080BDE81C40CC
:100290007047704770477047754600F029F8AE46C2
:1002A00005006946534620F00700854618B020B582
:1002B000FFF768FFBDE820404FF000064FF0000751
:1002C0004FF000084FF0000B21F00701AC46ACE8FE
:1002D000C009ACE8C009ACE8C009ACE8C0098D466B
:1002E00070470446AFF300802046FFF736FF00005A
:1002F000004870476400001070470000FFFFFFFFD8
:100300002DE9F04798480068C0F3016003287CD1CC
:100310009648006810F0030006D0012833D0022868
:100320005FD003282ED100E000BF8F480068C0F3E3
:10033000074000F101044FF002018D48D0F8880019
:10034000C0F30E0000F10100A1FB0001894B4FF04A
:10035000000CA0FB037901FB039100FB0C1122466A
:1003600063463846FFF71EFF054683480068C0B263
:1003700000F1010422464FF000032846FFF712FF68
:100380007E4908605DE078480068C0F3074000F1EE
:1003900001044FF002017648D0F88800C0F30E0047
:1003A00000F10100A1FB0010754A4FF0000CA1FB09
:1003B000027900FB029001FB0C012246634638469D
:1003C000FFF7F0FE05466C480068C0B200F101047A
:1003D00022464FF000032846FFF7E4FE6749086015
:1003E0002FE061480068C0F3074000F101044FF0BE
:1003F00002015F48D0F88800C0F30E0000F1010050
:10040000A1FB00124FF4004000E01BE04FF000039E
:10041000A1FB007902FB009001FB03012246384654
:10042000FFF7C0FE054654480068C0B200F1010461
:1004300022464FF000032846FFF7B4FE4F490860FC
:1004400000BF2FE04948006810F0030006D00128E3
:1004500010D0022819D0032823D100E000BF46485D
:100460000068C0B200F101004249B1FBF0F043491D
:10047000086016E040480068C0B200F10100404941
:10048000B1FBF0F03D4908600BE03B480068C0B2AA
:1004900000F101004FF40041B1FBF0F03749086072
:1004A00000BF00BFBDE8F087202036490860304813
:1004B000D0F8A00110F0200F05D000BF314800682F
:1004C00010F0400FFAD003202B4908604FF00000D5
:1004D0002749C1F8A8012C4908604FF001002349C1
:1004E00008604FF02300294908604FF0AA0028490E
:1004F00008604FF0550008604FF001002549086082
:100500004FF0AA00224908604FF055001849C1F881
:10051000AC0000BF2048006810F4806FFAD00320C0
:100520001C4908604FF0AA001149C1F8AC004FF017
:1005300055001749086000BF1748006800F4407074
:10054000B0F5407FF8D11548154908604FF000001C
:100550000749C1F8C8010846006820F4704040F41B
:10056000804008607047000088C00F400CC10F40F9
:1005700000C00F4000093D0004C10F400000001002
:10058000001BB700A0C10F40ACC10F40A4C00F407A
:10059000ACC00F40A0C00F40A8C00F40DE872804A9
:1005A000C4C00F4058490968012905D1574908605E
:1005B0006FF0F061564A51610101554A51610021C5
:1005C000544A116004E053490968491C514A1160BA
:1005D0005049096841F288329142F4D34FF47F6167
:1005E0004B4AD16170474A49486B00F0F060D0B186
:1005F0000121494A1170B0F5000F02D10021474A8C
:100600001170B0F1807F02D10121444A1170B0F124
:10061000007F02D10221414A1170B0F1806F02D1F6
:1006200003213E4A11707047FFF73EFFFFF768FE57
:1006300000203B4908604860C86008613948344977
:100640000860002008624FF4705008645AE058E0D7
:1006500000203549087039E03348007820B94FF45C
:1006600080603249086017E02F480078012803D1E4
:10067000C0022E4908600FE02B480078022803D101
:10068000C0022A49086007E027480078032803D100
:100690004FF4005025490860244800682449086048
:1006A0004FF470501A49C8652048006888650020DA
:1006B00019490870FFF797FF17480078012800D103
:1006C00008E019480078401C17490870164800785F
:1006D0000428C1DB00BF10480078012811D112485E
:1006E00000780E49097801EB8000124911F82000CA
:1006F0001149087008460078FFF754FF00200649AA
:100700000870A5E7A3E70000080000100C00001027
:1007100000C00920580000105300001050000010C5
:1007200000C00240F00F8007510000105C00001074
:100730006000001010000010540000100149182043
:10074000ABBEFEE7260002006807000000000010B4
:100750006400000008010000CC07000064000010E5
:100760006402000024010000C0C62D00000000004B
:1007700001000000000000003F0000000600000033
:100780005B0000004F000000660000006D000000EC
:100790007D000000070000007F0000006F000000E7
:1007A000770000007C000000390000005E000000BF
:1007B000790000007100000000000000000000004F
:0C07C0000000000000000000000000002D
:04000005000001698D
:00000001FF
