:020000040000FA
:10000000A0020010690100007101000073010000EE
:100010007501000077010000790100000000000078
:100020000000000000000000000000007B01000054
:100030007D010000000000007F0100008101000040
:1000400083010000830100008301000083010000A0
:100050008301000083010000830100008301000090
:100060008301000083010000830100008301000080
:100070008301000083010000830100008301000070
:100080008301000083010000830100008301000060
:100090008301000083010000830100008301000050
:1000A0008301000083010000830100008301000040
:1000B0008301000083010000830100008301000030
:1000C00083010000830100008301000000F002F8BA
:1000D00000F03AF80AA090E8000C82448344AAF1A8
:1000E0000107DA4501D100F02FF8AFF2090EBAE8A6
:1000F0000F0013F0010F18BFFB1A43F0010318475C
:100100003807000058070000103A24BF78C878C1AB
:10011000FAD8520724BF30C830C144BF04680C600D
:10012000704700000023002400250026103A28BF55
:1001300078C1FBD8520728BF30C148BF0B60704759
:100140001FB51FBD10B510BD00F0A6F81146FFF792
:10015000F7FF00F097FA00F0C4F803B4FFF7F2FFDE
:1001600003BC00F063FB00000948804709480047D2
:10017000FEE7FEE7FEE7FEE7FEE7FEE7FEE7FEE757
:10018000FEE7FEE704480549034A054B70470000B7
:10019000A9040000CD000000A0000010A002001083
:1001A000A000001053EA020C00F069802DE9F04B2A
:1001B0004FF00006002B1FBFB3FA83F503FA05F4D6
:1001C00024FA05F65E4012BF1643B2FA82F502FA2F
:1001D00005F4C5F120051EBF22FA05FC44EA0C0413
:1001E000203556EA044C4FEA144418BF641C4FF003
:1001F00000084FF00009904271EB030C39D300293D
:1002000019BFB1FA81F701FA07F6B0FA80F700FAE0
:1002100007F6C7F120071EBF20FA07FC46EA0C06C6
:100220002037B6FBF4FCA7EB0507103F07F01F0BC8
:10023000CBF120060CFA0BFB2CFA06F644BFB346B2
:100240000026202FA4BF5E464FF0000B5BEA060C91
:1002500008BF4FF0010B19EB0B09ABFB027C48EB1D
:100260000608C01B06FB02CC0BFB03CC71EB0C0198
:10027000C1E70B46024641464846BDE8F08B13B540
:100280004FF000004FF00001AFF30080BDE81C40CC
:100290007047704770477047754600F029F8AE46C2
:1002A00005006946534620F00700854618B020B582
:1002B000FFF768FFBDE820404FF000064FF0000751
:1002C0004FF000084FF0000B21F00701AC46ACE8FE
:1002D000C009ACE8C009ACE8C009ACE8C0098D466B
:1002E00070470446AFF300802046FFF736FF00005A
:1002F000004870474000001070470000FFFFFFFFFC
:100300002DE9F04798480068C0F3016003287CD1CC
:100310009648006810F0030006D0012833D0022868
:100320005FD003282ED100E000BF8F480068C0F3E3
:10033000074000F101044FF002018D48D0F8880019
:10034000C0F30E0000F10100A1FB0001894B4FF04A
:10035000000CA0FB037901FB039100FB0C1122466A
:1003600063463846FFF71EFF054683480068C0B263
:1003700000F1010422464FF000032846FFF712FF68
:100380007E4908605DE078480068C0F3074000F1EE
:1003900001044FF002017648D0F88800C0F30E0047
:1003A00000F10100A1FB0010754A4FF0000CA1FB09
:1003B000027900FB029001FB0C012246634638469D
:1003C000FFF7F0FE05466C480068C0B200F101047A
:1003D00022464FF000032846FFF7E4FE6749086015
:1003E0002FE061480068C0F3074000F101044FF0BE
:1003F00002015F48D0F88800C0F30E0000F1010050
:10040000A1FB00124FF4004000E01BE04FF000039E
:10041000A1FB007902FB009001FB03012246384654
:10042000FFF7C0FE054654480068C0B200F1010461
:1004300022464FF000032846FFF7B4FE4F490860FC
:1004400000BF2FE04948006810F0030006D00128E3
:1004500010D0022819D0032823D100E000BF46485D
:100460000068C0B200F101004249B1FBF0F043491D
:10047000086016E040480068C0B200F10100404941
:10048000B1FBF0F03D4908600BE03B480068C0B2AA
:1004900000F101004FF40041B1FBF0F03749086072
:1004A00000BF00BFBDE8F087202036490860304813
:1004B000D0F8A00110F0200F05D000BF314800682F
:1004C00010F0400FFAD003202B4908604FF00000D5
:1004D0002749C1F8A8012C4908604FF001002349C1
:1004E00008604FF02300294908604FF0AA0028490E
:1004F00008604FF0550008604FF001002549086082
:100500004FF0AA00224908604FF055001849C1F881
:10051000AC0000BF2048006810F4806FFAD00320C0
:100520001C4908604FF0AA001149C1F8AC004FF017
:1005300055001749086000BF1748006800F4407074
:10054000B0F5407FF8D11548154908604FF000001C
:100550000749C1F8C8010846006820F4704040F41B
:10056000804008607047000088C00F400CC10F40F9
:1005700000C00F4000093D0004C10F400000001002
:10058000001BB700A0C10F40ACC10F40A4C00F407A
:10059000ACC00F40A0C00F40A8C00F40DE872804A9
:1005A000C4C00F4092480068012808D191480068F3
:1005B000914908606FF0F0609049486325E08C48ED
:1005C0000068022808D18E4800688B4908606FF0E7
:1005D000E0608A49486318E085480068032808D12C
:1005E00088480068844908606FF0D0608349486398
:1005F0000BE07F480068042807D1834800687E49E3
:1006000008606FF0C0607D4948637B48007800F067
:100610000F00794908607D480968405C7C490860A2
:100620000846006800010860084600687349486190
:1006300000207849086004E076480068401C75494D
:10064000086074480068B0F5FA7FF5D34FF47F6016
:100650006A49C8617047002000E0401CB0F57A7F0D
:10066000FBD36D490968642906D1FF216B4A1170DB
:100670000021694A116004E067490968491C664A1B
:1006800011607047FFF710FFFFF73AFE64480068FB
:1006900064490840624908600846C06820F47F1039
:1006A000C8600846006920F0030008615348006CE8
:1006B00060F00100514908640846006840F47F601A
:1006C00008600846006A40F0F06008628EE04B481F
:1006D000406D554908600846007800F00100086048
:1006E00008460068002840D0FFF7B5FF4048006882
:1006F000401C3F49086008460068052801D10020D9
:10070000086046480078FF286ED1002043490870F1
:1007100038480068401C37490860084600680A28C5
:1007200062D10020086036480068401C34490860E7
:10073000084600680A2857D1002008603148006840
:10074000401C30490860084600680A284CD1002047
:1007500008602D480068401C2B4908600846006866
:100760000A2841D1002008603EE0FFF774FF2048CE
:100770000068401E1E4908600846006808B9042049
:10078000086026480078FF282ED1002023490870F1
:1007900018480068401E1749086008460068401C59
:1007A00022D10920086016480068401E14490860DC
:1007B00008460068401C17D10920086011480068ED
:1007C000401E1049086008460068401C0CD10920F2
:1007D00008600D480068401E0B4908600846006824
:1007E000401C01D109200860FFF7DCFE6FE7000024
:1007F00018000010040000101C00001000C00920A8
:10080000080000100C000010100000102000001064
:100810002C00001030000010140000102B000010FD
:1008200000C00240FF0000FF3C00001001491820FA
:10083000ABBEFEE7260002005808000000000010D2
:10084000400000000801000098080000400000106F
:100850006002000024010000C0C62D00000000005E
:100860000000000000000000000000000000000088
:1008700000000000000000003F065B4F666D7D0732
:100880007F6F00000000000000000000000000007A
:08089000000000000000000060
:04000005000001698D
:00000001FF
