:020000040000FA
:1000000098020010690100007101000073010000F6
:100010007501000077010000790100000000000078
:100020000000000000000000000000007B01000054
:100030007D010000000000007F0100008101000040
:1000400083010000830100008301000083010000A0
:100050008301000083010000830100008301000090
:100060008301000083010000830100008301000080
:100070008301000083010000830100008301000070
:100080008301000083010000830100008301000060
:100090008301000083010000830100008301000050
:1000A0008301000083010000830100008301000040
:1000B0008301000083010000830100008301000030
:1000C00083010000830100008301000000F002F8BA
:1000D00000F03AF80AA090E8000C82448344AAF1A8
:1000E0000107DA4501D100F02FF8AFF2090EBAE8A6
:1000F0000F0013F0010F18BFFB1A43F0010318475C
:100100008C060000AC060000103A24BF78C878C105
:10011000FAD8520724BF30C830C144BF04680C600D
:10012000704700000023002400250026103A28BF55
:1001300078C1FBD8520728BF30C148BF0B60704759
:100140001FB51FBD10B510BD00F0A6F81146FFF792
:10015000F7FF00F098FA00F0C4F803B4FFF7F2FFDD
:1001600003BC00F00DFB0000094880470948004728
:10017000FEE7FEE7FEE7FEE7FEE7FEE7FEE7FEE757
:10018000FEE7FEE704480549034A054B70470000B7
:10019000A9040000CD000000980000109802001093
:1001A0009800001053EA020C00F069802DE9F04B32
:1001B0004FF00006002B1FBFB3FA83F503FA05F4D6
:1001C00024FA05F65E4012BF1643B2FA82F502FA2F
:1001D00005F4C5F120051EBF22FA05FC44EA0C0413
:1001E000203556EA044C4FEA144418BF641C4FF003
:1001F00000084FF00009904271EB030C39D300293D
:1002000019BFB1FA81F701FA07F6B0FA80F700FAE0
:1002100007F6C7F120071EBF20FA07FC46EA0C06C6
:100220002037B6FBF4FCA7EB0507103F07F01F0BC8
:10023000CBF120060CFA0BFB2CFA06F644BFB346B2
:100240000026202FA4BF5E464FF0000B5BEA060C91
:1002500008BF4FF0010B19EB0B09ABFB027C48EB1D
:100260000608C01B06FB02CC0BFB03CC71EB0C0198
:10027000C1E70B46024641464846BDE8F08B13B540
:100280004FF000004FF00001AFF30080BDE81C40CC
:100290007047704770477047754600F029F8AE46C2
:1002A00005006946534620F00700854618B020B582
:1002B000FFF768FFBDE820404FF000064FF0000751
:1002C0004FF000084FF0000B21F00701AC46ACE8FE
:1002D000C009ACE8C009ACE8C009ACE8C0098D466B
:1002E00070470446AFF300802046FFF736FF00005A
:1002F000004870473400001070470000FFFFFFFF08
:100300002DE9F04798480068C0F3016003287CD1CC
:100310009648006810F0030006D0012833D0022868
:100320005FD003282ED100E000BF8F480068C0F3E3
:10033000074000F101044FF002018D48D0F8880019
:10034000C0F30E0000F10100A1FB0001894B4FF04A
:10035000000CA0FB037901FB039100FB0C1122466A
:1003600063463846FFF71EFF054683480068C0B263
:1003700000F1010422464FF000032846FFF712FF68
:100380007E4908605DE078480068C0F3074000F1EE
:1003900001044FF002017648D0F88800C0F30E0047
:1003A00000F10100A1FB0010754A4FF0000CA1FB09
:1003B000027900FB029001FB0C012246634638469D
:1003C000FFF7F0FE05466C480068C0B200F101047A
:1003D00022464FF000032846FFF7E4FE6749086015
:1003E0002FE061480068C0F3074000F101044FF0BE
:1003F00002015F48D0F88800C0F30E0000F1010050
:10040000A1FB00124FF4004000E01BE04FF000039E
:10041000A1FB007902FB009001FB03012246384654
:10042000FFF7C0FE054654480068C0B200F1010461
:1004300022464FF000032846FFF7B4FE4F490860FC
:1004400000BF2FE04948006810F0030006D00128E3
:1004500010D0022819D0032823D100E000BF46485D
:100460000068C0B200F101004249B1FBF0F043491D
:10047000086016E040480068C0B200F10100404941
:10048000B1FBF0F03D4908600BE03B480068C0B2AA
:1004900000F101004FF40041B1FBF0F03749086072
:1004A00000BF00BFBDE8F087202036490860304813
:1004B000D0F8A00110F0200F05D000BF314800682F
:1004C00010F0400FFAD003202B4908604FF00000D5
:1004D0002749C1F8A8012C4908604FF001002349C1
:1004E00008604FF02300294908604FF0AA0028490E
:1004F00008604FF0550008604FF001002549086082
:100500004FF0AA00224908604FF055001849C1F881
:10051000AC0000BF2048006810F4806FFAD00320C0
:100520001C4908604FF0AA001149C1F8AC004FF017
:1005300055001749086000BF1748006800F4407074
:10054000B0F5407FF8D11548154908604FF000001C
:100550000749C1F8C8010846006820F4704040F41B
:10056000804008607047000088C00F400CC10F40F9
:1005700000C00F4000093D0004C10F400000001002
:10058000001BB700A0C10F40ACC10F40A4C00F407A
:10059000ACC00F40A0C00F40A8C00F40DE872804A9
:1005A000C4C00F4068480068012808D16748006847
:1005B000674908606FF0F0606649486325E062486B
:1005C0000068022808D164480068614908606FF03B
:1005D000E0606049486318E05B480068032808D180
:1005E0005E4800685A4908606FF0D0605949486316
:1005F0000BE055480068042807D159480068544961
:1006000008606FF0C060534948635148007800F0BB
:100610000F004F49086053480968405C5249086020
:1006200008460068000108600846006849494861BA
:1006300000204E49086004E04C480068401C4B49CB
:1006400008604A480068B0F57A7FF5D34FF47F60C0
:100650004049C8617047002000E0401CB0F5966F2B
:10066000FBD343490968B1F5FA7F06D1FF21414A1E
:10067000117000213E4A116004E03D490968491C9F
:100680003B4A11607047FFF70FFFFFF739FE3A480A
:1006900000683A490840384908600846C06820F4B4
:1006A0007F10C8602B48006840F47F6029490860CB
:1006B0000846006A40F0F060086244E0FFF7CBFFB4
:1006C00021480068401C2049086008460068052849
:1006D00004D100200860FF202649087025480078D2
:1006E000FF282ED100202349087018480068401CBC
:1006F00016490860084600680A2822D100200860D0
:1007000015480068401C14490860084600680A281B
:1007100017D10020086011480068401C0F4908608C
:10072000084600680A280CD1002008600C480068C0
:10073000401C0B490860084600680A2801D10020C7
:100740000860FFF72FFFB9E7180000100400001041
:100750001C00001000C00920080000100C00001050
:1007600010000010200000102C00001030000010BD
:10077000140000102A00001000C00240FF0000FF1B
:1007800001491820ABBEFEE726000200AC070000BE
:10079000000000103400000008010000E007000025
:1007A000340000106402000024010000C0C62D00C7
:1007B0000000000000000000000000000000000039
:1007C0000000000000000000000000003F065B4F3A
:1007D000666D7D077F6F00000000000000000000D4
:04000005000001698D
:00000001FF
